:1000000021C000000000000000000000000000000F
:1000100000000000000000000000000000000000E0
:1000200000000000000000000000000000000000D0
:100030000000000030313233343536373839414230
:10004000434445460FEF0DBF18E01EBF112407E6DD
:100050001092C5000093C40008E00093C10006E0C0
:100060000093C20008E310E0009300021093010225
:100070000CE310E0009302021093030200910002CF
:1000800010910102009304021093050200910002F6
:1000900010910102009306021093070200910402DE
:1000A00010910502209106023091070200D2409380
:1000B000080250930902009108021091090200936E
:1000C0000A0210930B0200910A0210910B02009396
:1000D0000C0210930D0200910C0210910D0220E40D
:1000E00030E047D240930E0250930F0200910E026F
:1000F00010910F020093100210931102009102025E
:100100001091030200931202109313020091100247
:100110001091110200931402109315020091120223
:1001200010911302209114023091150268D140936E
:1001300016025093170200911602109117020093B5
:1001400002021093030200910A0210910B02009325
:1001500018021093190200910A0210910B020093E9
:100160001A0210931B02009118021091190220919B
:100170001A0230911B029BD140931C0250931D0226
:1001800000911C0210911D0200931E0210931F0289
:1001900000911E0210911F02009320021093210271
:1001A00000912002109121022EE430E0E2D1409330
:1001B0002202509323020091220210912302009305
:1001C0002402109325020091020210910302009371
:1001D0002602109327020091240210912502009319
:1001E00028021093290200912602109127022091E3
:1001F000280230912902A9D040932A0250932B0261
:1002000000912A0210912B02009302021093030224
:1002100000911E0210911F0200932C0210932D02D8
:1002200000910A0210910B0200932E0210932F02EC
:1002300000912C0210912D0220912E0230912F025C
:1002400036D1409330025093310200913002109128
:100250003102009332021093330200913202109166
:10026000330200933402109335020091340210914E
:10027000350221E630EA7DD14093360250933702B1
:100280000091360210913702009338021093390220
:10029000009102021091030200933A0210933B0274
:1002A000009138021091390200933C0210933D02F4
:1002B00000913A0210913B0220913C0230913D02A4
:1002C0009ED040933E0250933F0200913E02109117
:1002D0003F02009302021093030200910202109168
:1002E000030200934002109341024091400250915A
:1002F000410218D0FFCF7091C00075FFFCCF089568
:10030000FADF4093C60008954F70E4E3F0E0E40F95
:10031000F11D4491F5DF08954F934295F5DF4F911C
:10032000F3DF08954F935F936F9340E3E9DF48E76E
:10033000E7DF6F915F914F915F93EEDF4F91ECDFBD
:100340004DE0DEDF4AE0DCDF08956F937F938F930B
:100350009F93AF93BF93CF93DF93EF93FF93602F60
:100360006F77612B19F4422F532F3EC0622F6F77A6
:10037000632B19F4402F512F37C05CE7702F752382
:1003800076957695622F65236695669576176CF05F
:10039000F72F761B872F93E0A22FA923A460B32FFA
:1003A000C02FC923C460D12F0CC0F62F671B862F26
:1003B00093E0A02FA923A460B12FC22FC923C4604A
:1003C000D32F882321F0A695B7958A95E1F7BD0F25
:1003D000AC1FA3FF03C0A695B795F395A3704F2F4D
:1003E000440F440F4A2B5B2FFF91EF91DF91CF9188
:1003F000BF91AF919F918F917F916F9108952F92AF
:100400006F937F938F939F93AF93BF93CF93DF931C
:10041000EF93FF93EE27602F6F77722F7F7713177D
:10042000670738F4E1E0202E022F222D212E132F12
:10043000322D5CE7702F752376957695622F6523B4
:1004400066956695F72F761B872F93E0A22FA92339
:10045000A460B32FC02FC923C460D12F882321F0FB
:10046000A695B7958A95E1F7DB1BCA0B9C2F9D2BB0
:1004700019F4442755270FC0C2FD05C0DD0FCC1F5E
:10048000FA95C2FFFBCFC3704F2F440F440F4C2B84
:10049000E0FD40685D2FFF91EF91DF91CF91BF911B
:1004A000AF919F918F917F916F912F9008956F934E
:1004B0007F938F939F93AF93BF93CF93DF93EF93EC
:1004C000FF93602F6F77612B09F446C0622F6F771F
:1004D000632B09F441C0E02FE227E0785CE7702F3E
:1004E000752376957695622F652366956695760FCA
:1004F0007F50F72F93E0C02FC923C460B12F822F04
:1005000089238460632FDD27AA279927B69F902D22
:10051000A12DB89FA00DD11DC69FA00DD11DC89FB4
:10052000D00D1124D5FF03C0D695A795F3954F2F75
:10053000440F440F8D2F869586958370482B4E2B44
:100540005D2F550F550F550F550F550F550F8A2F0E
:1005500086958695582B02C044275527FF91EF9129
:10056000DF91CF91BF91AF919F918F917F916F91CB
:1005700008956F937F938F939F93AF93BF93CF9380
:10058000DF93EF93FF93622F6F77632B09F43BC0E8
:10059000602F6F77612B09F436C0E02FE227E078F7
:1005A0005CE7702F752376957695622F65236695A7
:1005B00066958FE0780F761BF72F93E0B02FB92365
:1005C000B460A12FD22FD923D460C32F9BE044273E
:1005D0005527550F441FAC17BD0718F0AC1BBD0BBA
:1005E0005160AA0FBB1F9A95A1F742FD05C0550F98
:1005F000441FFA9542FFFBCF43708F2F880F880F5F
:10060000482B4E2B02C044275527FF91EF91DF91D5
:10061000CF91BF91AF919F918F917F916F910895ED
:100620007F938F93131702077FB7442755276030B6
:1006300029F470FD1FC071FD1DC01AC0613019F48E
:1006400070FF18C015C0623019F470FD13C010C0DF
:10065000633031F470FF01C00BC071FF0BC008C0E4
:10066000643019F471FF06C003C071FD03C000C0FF
:0A0670004CE355278F917F91089508
:00000001FF
